{
  "_format": "hh-sol-artifact-1",
  "contractName": "MyEpicNFT",
  "sourceName": "contracts/MyNFT.sol",
  "abi": [
    {
      "inputs": [],
      "stateMutability": "nonpayable",
      "type": "constructor"
    },
    {
      "anonymous": false,
      "inputs": [
        {
          "indexed": true,
          "internalType": "address",
          "name": "owner",
          "type": "address"
        },
        {
          "indexed": true,
          "internalType": "address",
          "name": "approved",
          "type": "address"
        },
        {
          "indexed": true,
          "internalType": "uint256",
          "name": "tokenId",
          "type": "uint256"
        }
      ],
      "name": "Approval",
      "type": "event"
    },
    {
      "anonymous": false,
      "inputs": [
        {
          "indexed": true,
          "internalType": "address",
          "name": "owner",
          "type": "address"
        },
        {
          "indexed": true,
          "internalType": "address",
          "name": "operator",
          "type": "address"
        },
        {
          "indexed": false,
          "internalType": "bool",
          "name": "approved",
          "type": "bool"
        }
      ],
      "name": "ApprovalForAll",
      "type": "event"
    },
    {
      "anonymous": false,
      "inputs": [
        {
          "indexed": true,
          "internalType": "address",
          "name": "from",
          "type": "address"
        },
        {
          "indexed": true,
          "internalType": "address",
          "name": "to",
          "type": "address"
        },
        {
          "indexed": true,
          "internalType": "uint256",
          "name": "tokenId",
          "type": "uint256"
        }
      ],
      "name": "Transfer",
      "type": "event"
    },
    {
      "inputs": [
        {
          "internalType": "address",
          "name": "to",
          "type": "address"
        },
        {
          "internalType": "uint256",
          "name": "tokenId",
          "type": "uint256"
        }
      ],
      "name": "approve",
      "outputs": [],
      "stateMutability": "nonpayable",
      "type": "function"
    },
    {
      "inputs": [
        {
          "internalType": "address",
          "name": "owner",
          "type": "address"
        }
      ],
      "name": "balanceOf",
      "outputs": [
        {
          "internalType": "uint256",
          "name": "",
          "type": "uint256"
        }
      ],
      "stateMutability": "view",
      "type": "function"
    },
    {
      "inputs": [
        {
          "internalType": "uint256",
          "name": "tokenId",
          "type": "uint256"
        }
      ],
      "name": "getApproved",
      "outputs": [
        {
          "internalType": "address",
          "name": "",
          "type": "address"
        }
      ],
      "stateMutability": "view",
      "type": "function"
    },
    {
      "inputs": [
        {
          "internalType": "address",
          "name": "owner",
          "type": "address"
        },
        {
          "internalType": "address",
          "name": "operator",
          "type": "address"
        }
      ],
      "name": "isApprovedForAll",
      "outputs": [
        {
          "internalType": "bool",
          "name": "",
          "type": "bool"
        }
      ],
      "stateMutability": "view",
      "type": "function"
    },
    {
      "inputs": [],
      "name": "makeAnNFT",
      "outputs": [],
      "stateMutability": "nonpayable",
      "type": "function"
    },
    {
      "inputs": [],
      "name": "name",
      "outputs": [
        {
          "internalType": "string",
          "name": "",
          "type": "string"
        }
      ],
      "stateMutability": "view",
      "type": "function"
    },
    {
      "inputs": [
        {
          "internalType": "uint256",
          "name": "tokenId",
          "type": "uint256"
        }
      ],
      "name": "ownerOf",
      "outputs": [
        {
          "internalType": "address",
          "name": "",
          "type": "address"
        }
      ],
      "stateMutability": "view",
      "type": "function"
    },
    {
      "inputs": [
        {
          "internalType": "uint256",
          "name": "tokenId",
          "type": "uint256"
        }
      ],
      "name": "pickRandomFirstWord",
      "outputs": [
        {
          "internalType": "string",
          "name": "",
          "type": "string"
        }
      ],
      "stateMutability": "view",
      "type": "function"
    },
    {
      "inputs": [
        {
          "internalType": "uint256",
          "name": "tokenId",
          "type": "uint256"
        }
      ],
      "name": "pickRandomSecondWord",
      "outputs": [
        {
          "internalType": "string",
          "name": "",
          "type": "string"
        }
      ],
      "stateMutability": "view",
      "type": "function"
    },
    {
      "inputs": [
        {
          "internalType": "uint256",
          "name": "tokenId",
          "type": "uint256"
        }
      ],
      "name": "pickRandomThirdWord",
      "outputs": [
        {
          "internalType": "string",
          "name": "",
          "type": "string"
        }
      ],
      "stateMutability": "view",
      "type": "function"
    },
    {
      "inputs": [
        {
          "internalType": "address",
          "name": "from",
          "type": "address"
        },
        {
          "internalType": "address",
          "name": "to",
          "type": "address"
        },
        {
          "internalType": "uint256",
          "name": "tokenId",
          "type": "uint256"
        }
      ],
      "name": "safeTransferFrom",
      "outputs": [],
      "stateMutability": "nonpayable",
      "type": "function"
    },
    {
      "inputs": [
        {
          "internalType": "address",
          "name": "from",
          "type": "address"
        },
        {
          "internalType": "address",
          "name": "to",
          "type": "address"
        },
        {
          "internalType": "uint256",
          "name": "tokenId",
          "type": "uint256"
        },
        {
          "internalType": "bytes",
          "name": "_data",
          "type": "bytes"
        }
      ],
      "name": "safeTransferFrom",
      "outputs": [],
      "stateMutability": "nonpayable",
      "type": "function"
    },
    {
      "inputs": [
        {
          "internalType": "address",
          "name": "operator",
          "type": "address"
        },
        {
          "internalType": "bool",
          "name": "approved",
          "type": "bool"
        }
      ],
      "name": "setApprovalForAll",
      "outputs": [],
      "stateMutability": "nonpayable",
      "type": "function"
    },
    {
      "inputs": [
        {
          "internalType": "bytes4",
          "name": "interfaceId",
          "type": "bytes4"
        }
      ],
      "name": "supportsInterface",
      "outputs": [
        {
          "internalType": "bool",
          "name": "",
          "type": "bool"
        }
      ],
      "stateMutability": "view",
      "type": "function"
    },
    {
      "inputs": [],
      "name": "symbol",
      "outputs": [
        {
          "internalType": "string",
          "name": "",
          "type": "string"
        }
      ],
      "stateMutability": "view",
      "type": "function"
    },
    {
      "inputs": [
        {
          "internalType": "uint256",
          "name": "tokenId",
          "type": "uint256"
        }
      ],
      "name": "tokenURI",
      "outputs": [
        {
          "internalType": "string",
          "name": "",
          "type": "string"
        }
      ],
      "stateMutability": "view",
      "type": "function"
    },
    {
      "inputs": [
        {
          "internalType": "address",
          "name": "from",
          "type": "address"
        },
        {
          "internalType": "address",
          "name": "to",
          "type": "address"
        },
        {
          "internalType": "uint256",
          "name": "tokenId",
          "type": "uint256"
        }
      ],
      "name": "transferFrom",
      "outputs": [],
      "stateMutability": "nonpayable",
      "type": "function"
    }
  ],
  "bytecode": "0x608060405260405180610480016040528061045a8152602001620042d661045a9139600890805190602001906200003892919062000662565b506040518060c001604052806040518060400160405280600581526020017f204143452000000000000000000000000000000000000000000000000000000081525081526020016040518060400160405280600581526020017f2045474f2000000000000000000000000000000000000000000000000000000081525081526020016040518060400160405280600581526020017f20464f582000000000000000000000000000000000000000000000000000000081525081526020016040518060400160405280600581526020017f204943452000000000000000000000000000000000000000000000000000000081525081526020016040518060400160405280600581526020017f205341472000000000000000000000000000000000000000000000000000000081525081526020016040518060400160405280600581526020017f20534144200000000000000000000000000000000000000000000000000000008152508152506009906006620001b6929190620006f3565b506040518060c001604052806040518060400160405280600581526020017f20424f4f2000000000000000000000000000000000000000000000000000000081525081526020016040518060400160405280600581526020017f2046414e2000000000000000000000000000000000000000000000000000000081525081526020016040518060400160405280600581526020017f2046554e2000000000000000000000000000000000000000000000000000000081525081526020016040518060400160405280600581526020017f204f4c442000000000000000000000000000000000000000000000000000000081525081526020016040518060400160405280600581526020017f205345412000000000000000000000000000000000000000000000000000000081525081526020016040518060400160405280600581526020017f2057525920000000000000000000000000000000000000000000000000000000815250815250600a90600662000334929190620006f3565b506040518060c001604052806040518060400160405280600581526020017f204249532000000000000000000000000000000000000000000000000000000081525081526020016040518060400160405280600581526020017f204641542000000000000000000000000000000000000000000000000000000081525081526020016040518060400160405280600581526020017f2047454d2000000000000000000000000000000000000000000000000000000081525081526020016040518060400160405280600581526020017f204f4f482000000000000000000000000000000000000000000000000000000081525081526020016040518060400160405280600581526020017f20574f572000000000000000000000000000000000000000000000000000000081525081526020016040518060400160405280600581526020017f2057454520000000000000000000000000000000000000000000000000000000815250815250600b906006620004b2929190620006f3565b50348015620004c057600080fd5b506040518060400160405280600581526020017f4d794e46540000000000000000000000000000000000000000000000000000008152506040518060400160405280600381526020017f544c43000000000000000000000000000000000000000000000000000000000081525081600090805190602001906200054592919062000662565b5080600190805190602001906200055e92919062000662565b5050506200059060405180606001604052806025815260200162004730602591396200059660201b620012751760201c565b62000914565b6200063681604051602401620005ad919062000828565b6040516020818303038152906040527f41304fac000000000000000000000000000000000000000000000000000000007bffffffffffffffffffffffffffffffffffffffffffffffffffffffff19166020820180517bffffffffffffffffffffffffffffffffffffffffffffffffffffffff83818316178352505050506200063960201b60201c565b50565b60008151905060006a636f6e736f6c652e6c6f679050602083016000808483855afa5050505050565b82805462000670906200089e565b90600052602060002090601f016020900481019282620006945760008555620006e0565b82601f10620006af57805160ff1916838001178555620006e0565b82800160010185558215620006e0579182015b82811115620006df578251825591602001919060010190620006c2565b5b509050620006ef91906200075a565b5090565b82805482825590600052602060002090810192821562000747579160200282015b82811115620007465782518290805190602001906200073592919062000662565b509160200191906001019062000714565b5b50905062000756919062000779565b5090565b5b80821115620007755760008160009055506001016200075b565b5090565b5b808211156200079d5760008181620007939190620007a1565b506001016200077a565b5090565b508054620007af906200089e565b6000825580601f10620007c35750620007e4565b601f016020900490600052602060002090810190620007e391906200075a565b5b50565b6000620007f4826200084c565b62000800818562000857565b93506200081281856020860162000868565b6200081d8162000903565b840191505092915050565b60006020820190508181036000830152620008448184620007e7565b905092915050565b600081519050919050565b600082825260208201905092915050565b60005b83811015620008885780820151818401526020810190506200086b565b8381111562000898576000848401525b50505050565b60006002820490506001821680620008b757607f821691505b60208210811415620008ce57620008cd620008d4565b5b50919050565b7f4e487b7100000000000000000000000000000000000000000000000000000000600052602260045260246000fd5b6000601f19601f8301169050919050565b6139b280620009246000396000f3fe608060405234801561001057600080fd5b506004361061010b5760003560e01c806370a08231116100a2578063b88d4fde11610071578063b88d4fde146102dc578063c575757a146102f8578063c87b56dd14610328578063e4d098e114610358578063e985e9c5146103625761010b565b806370a082311461024257806395d89b4114610272578063a22cb46514610290578063b187301f146102ac5761010b565b806323b872dd116100de57806323b872dd146101aa5780632de38d68146101c657806342842e0e146101f65780636352211e146102125761010b565b806301ffc9a71461011057806306fdde0314610140578063081812fc1461015e578063095ea7b31461018e575b600080fd5b61012a600480360381019061012591906124e9565b610392565b6040516101379190612bca565b60405180910390f35b610148610474565b6040516101559190612be5565b60405180910390f35b6101786004803603810190610173919061253b565b610506565b6040516101859190612b63565b60405180910390f35b6101a860048036038101906101a391906124ad565b61058b565b005b6101c460048036038101906101bf91906123a7565b6106a3565b005b6101e060048036038101906101db919061253b565b610703565b6040516101ed9190612be5565b60405180910390f35b610210600480360381019061020b91906123a7565b610821565b005b61022c6004803603810190610227919061253b565b610841565b6040516102399190612b63565b60405180910390f35b61025c60048036038101906102579190612342565b6108f3565b6040516102699190612e45565b60405180910390f35b61027a6109ab565b6040516102879190612be5565b60405180910390f35b6102aa60048036038101906102a59190612471565b610a3d565b005b6102c660048036038101906102c1919061253b565b610bbe565b6040516102d39190612be5565b60405180910390f35b6102f660048036038101906102f191906123f6565b610cdc565b005b610312600480360381019061030d919061253b565b610d3e565b60405161031f9190612be5565b60405180910390f35b610342600480360381019061033d919061253b565b610e5c565b60405161034f9190612be5565b60405180910390f35b610360610fae565b005b61037c6004803603810190610377919061236b565b6111e1565b6040516103899190612bca565b60405180910390f35b60007f80ac58cd000000000000000000000000000000000000000000000000000000007bffffffffffffffffffffffffffffffffffffffffffffffffffffffff1916827bffffffffffffffffffffffffffffffffffffffffffffffffffffffff1916148061045d57507f5b5e139f000000000000000000000000000000000000000000000000000000007bffffffffffffffffffffffffffffffffffffffffffffffffffffffff1916827bffffffffffffffffffffffffffffffffffffffffffffffffffffffff1916145b8061046d575061046c8261130e565b5b9050919050565b606060008054610483906130d9565b80601f01602080910402602001604051908101604052809291908181526020018280546104af906130d9565b80156104fc5780601f106104d1576101008083540402835291602001916104fc565b820191906000526020600020905b8154815290600101906020018083116104df57829003601f168201915b5050505050905090565b600061051182611378565b610550576040517f08c379a000000000000000000000000000000000000000000000000000000000815260040161054790612da5565b60405180910390fd5b6004600083815260200190815260200160002060009054906101000a900473ffffffffffffffffffffffffffffffffffffffff169050919050565b600061059682610841565b90508073ffffffffffffffffffffffffffffffffffffffff168373ffffffffffffffffffffffffffffffffffffffff161415610607576040517f08c379a00000000000000000000000000000000000000000000000000000000081526004016105fe90612e05565b60405180910390fd5b8073ffffffffffffffffffffffffffffffffffffffff166106266113e4565b73ffffffffffffffffffffffffffffffffffffffff16148061065557506106548161064f6113e4565b6111e1565b5b610694576040517f08c379a000000000000000000000000000000000000000000000000000000000815260040161068b90612ce5565b60405180910390fd5b61069e83836113ec565b505050565b6106b46106ae6113e4565b826114a5565b6106f3576040517f08c379a00000000000000000000000000000000000000000000000000000000081526004016106ea90612e25565b60405180910390fd5b6106fe838383611583565b505050565b60606000610737610713846117df565b6040516020016107239190612b1f565b60405160208183030381529060405261198c565b90506009805490508161074a9190613185565b905060098181548110610786577f4e487b7100000000000000000000000000000000000000000000000000000000600052603260045260246000fd5b90600052602060002001805461079b906130d9565b80601f01602080910402602001604051908101604052809291908181526020018280546107c7906130d9565b80156108145780601f106107e957610100808354040283529160200191610814565b820191906000526020600020905b8154815290600101906020018083116107f757829003601f168201915b5050505050915050919050565b61083c83838360405180602001604052806000815250610cdc565b505050565b6000806002600084815260200190815260200160002060009054906101000a900473ffffffffffffffffffffffffffffffffffffffff169050600073ffffffffffffffffffffffffffffffffffffffff168173ffffffffffffffffffffffffffffffffffffffff1614156108ea576040517f08c379a00000000000000000000000000000000000000000000000000000000081526004016108e190612d25565b60405180910390fd5b80915050919050565b60008073ffffffffffffffffffffffffffffffffffffffff168273ffffffffffffffffffffffffffffffffffffffff161415610964576040517f08c379a000000000000000000000000000000000000000000000000000000000815260040161095b90612d05565b60405180910390fd5b600360008373ffffffffffffffffffffffffffffffffffffffff1673ffffffffffffffffffffffffffffffffffffffff168152602001908152602001600020549050919050565b6060600180546109ba906130d9565b80601f01602080910402602001604051908101604052809291908181526020018280546109e6906130d9565b8015610a335780601f10610a0857610100808354040283529160200191610a33565b820191906000526020600020905b815481529060010190602001808311610a1657829003601f168201915b5050505050905090565b610a456113e4565b73ffffffffffffffffffffffffffffffffffffffff168273ffffffffffffffffffffffffffffffffffffffff161415610ab3576040517f08c379a0000000000000000000000000000000000000000000000000000000008152600401610aaa90612ca5565b60405180910390fd5b8060056000610ac06113e4565b73ffffffffffffffffffffffffffffffffffffffff1673ffffffffffffffffffffffffffffffffffffffff16815260200190815260200160002060008473ffffffffffffffffffffffffffffffffffffffff1673ffffffffffffffffffffffffffffffffffffffff16815260200190815260200160002060006101000a81548160ff0219169083151502179055508173ffffffffffffffffffffffffffffffffffffffff16610b6d6113e4565b73ffffffffffffffffffffffffffffffffffffffff167f17307eab39ab6107e8899845ad3d59bd9653f200f220920489ca2b5937696c3183604051610bb29190612bca565b60405180910390a35050565b60606000610bf2610bce846117df565b604051602001610bde9190612ab8565b60405160208183030381529060405261198c565b9050600a8054905081610c059190613185565b9050600a8181548110610c41577f4e487b7100000000000000000000000000000000000000000000000000000000600052603260045260246000fd5b906000526020600020018054610c56906130d9565b80601f0160208091040260200160405190810160405280929190818152602001828054610c82906130d9565b8015610ccf5780601f10610ca457610100808354040283529160200191610ccf565b820191906000526020600020905b815481529060010190602001808311610cb257829003601f168201915b5050505050915050919050565b610ced610ce76113e4565b836114a5565b610d2c576040517f08c379a0000000000000000000000000000000000000000000000000000000008152600401610d2390612e25565b60405180910390fd5b610d38848484846119bf565b50505050565b60606000610d72610d4e846117df565b604051602001610d5e9190612a96565b60405160208183030381529060405261198c565b9050600b8054905081610d859190613185565b9050600b8181548110610dc1577f4e487b7100000000000000000000000000000000000000000000000000000000600052603260045260246000fd5b906000526020600020018054610dd6906130d9565b80601f0160208091040260200160405190810160405280929190818152602001828054610e02906130d9565b8015610e4f5780601f10610e2457610100808354040283529160200191610e4f565b820191906000526020600020905b815481529060010190602001808311610e3257829003601f168201915b5050505050915050919050565b6060610e6782611378565b610ea6576040517f08c379a0000000000000000000000000000000000000000000000000000000008152600401610e9d90612d85565b60405180910390fd5b6000600660008481526020019081526020016000208054610ec6906130d9565b80601f0160208091040260200160405190810160405280929190818152602001828054610ef2906130d9565b8015610f3f5780601f10610f1457610100808354040283529160200191610f3f565b820191906000526020600020905b815481529060010190602001808311610f2257829003601f168201915b505050505090506000610f50611a1b565b9050600081511415610f66578192505050610fa9565b600082511115610f9b578082604051602001610f83929190612a12565b60405160208183030381529060405292505050610fa9565b610fa484611a32565b925050505b919050565b6000610fba6007611ad9565b90506000610fc782610703565b90506000610fd483610bbe565b90506000610fe184610d3e565b90506000838383604051602001610ffa93929190612a36565b60405160208183030381529060405290506000600882604051602001611021929190612a67565b60405160208183030381529060405290506110706040518060400160405280601681526020017f0a2a2a2a2a2a2a2a2a2a2a2a2a2a2a2a2a2a2a2a2a2a00000000000000000000815250611275565b61107981611275565b6110b76040518060400160405280601681526020017f2a2a2a2a2a2a2a2a2a2a2a2a2a2a2a2a2a2a2a2a2a0a00000000000000000000815250611275565b60006110eb836110c684611ae7565b6040516020016110d7929190612ada565b604051602081830303815290604052611ae7565b90506000816040516020016111009190612b41565b604051602081830303815290604052905061114f6040518060400160405280601581526020017f0a2d2d2d2d2d2d2d2d2d2d2d2d2d2d2d2d2d2d2d2d0000000000000000000000815250611275565b61115881611275565b6111966040518060400160405280601581526020017f2d2d2d2d2d2d2d2d2d2d2d2d2d2d2d2d2d2d2d2d0a0000000000000000000000815250611275565b6111a03389611c86565b6111aa8882611ca4565b6111b46007611d18565b6111d7604051806060016040528060258152602001613918602591398933611d2e565b5050505050505050565b6000600560008473ffffffffffffffffffffffffffffffffffffffff1673ffffffffffffffffffffffffffffffffffffffff16815260200190815260200160002060008373ffffffffffffffffffffffffffffffffffffffff1673ffffffffffffffffffffffffffffffffffffffff16815260200190815260200160002060009054906101000a900460ff16905092915050565b61130b816040516024016112899190612be5565b6040516020818303038152906040527f41304fac000000000000000000000000000000000000000000000000000000007bffffffffffffffffffffffffffffffffffffffffffffffffffffffff19166020820180517bffffffffffffffffffffffffffffffffffffffffffffffffffffffff8381831617835250505050611dcd565b50565b60007f01ffc9a7000000000000000000000000000000000000000000000000000000007bffffffffffffffffffffffffffffffffffffffffffffffffffffffff1916827bffffffffffffffffffffffffffffffffffffffffffffffffffffffff1916149050919050565b60008073ffffffffffffffffffffffffffffffffffffffff166002600084815260200190815260200160002060009054906101000a900473ffffffffffffffffffffffffffffffffffffffff1673ffffffffffffffffffffffffffffffffffffffff1614159050919050565b600033905090565b816004600083815260200190815260200160002060006101000a81548173ffffffffffffffffffffffffffffffffffffffff021916908373ffffffffffffffffffffffffffffffffffffffff160217905550808273ffffffffffffffffffffffffffffffffffffffff1661145f83610841565b73ffffffffffffffffffffffffffffffffffffffff167f8c5be1e5ebec7d5bd14f71427d1e84f3dd0314c0f7b2291e5b200ac8c7c3b92560405160405180910390a45050565b60006114b082611378565b6114ef576040517f08c379a00000000000000000000000000000000000000000000000000000000081526004016114e690612cc5565b60405180910390fd5b60006114fa83610841565b90508073ffffffffffffffffffffffffffffffffffffffff168473ffffffffffffffffffffffffffffffffffffffff16148061156957508373ffffffffffffffffffffffffffffffffffffffff1661155184610506565b73ffffffffffffffffffffffffffffffffffffffff16145b8061157a575061157981856111e1565b5b91505092915050565b8273ffffffffffffffffffffffffffffffffffffffff166115a382610841565b73ffffffffffffffffffffffffffffffffffffffff16146115f9576040517f08c379a00000000000000000000000000000000000000000000000000000000081526004016115f090612dc5565b60405180910390fd5b600073ffffffffffffffffffffffffffffffffffffffff168273ffffffffffffffffffffffffffffffffffffffff161415611669576040517f08c379a000000000000000000000000000000000000000000000000000000000815260040161166090612c85565b60405180910390fd5b611674838383611df6565b61167f6000826113ec565b6001600360008573ffffffffffffffffffffffffffffffffffffffff1673ffffffffffffffffffffffffffffffffffffffff16815260200190815260200160002060008282546116cf9190612fef565b925050819055506001600360008473ffffffffffffffffffffffffffffffffffffffff1673ffffffffffffffffffffffffffffffffffffffff16815260200190815260200160002060008282546117269190612f0e565b92505081905550816002600083815260200190815260200160002060006101000a81548173ffffffffffffffffffffffffffffffffffffffff021916908373ffffffffffffffffffffffffffffffffffffffff160217905550808273ffffffffffffffffffffffffffffffffffffffff168473ffffffffffffffffffffffffffffffffffffffff167fddf252ad1be2c89b69c2b068fc378daa952ba7f163c4a11628f55a4df523b3ef60405160405180910390a4505050565b60606000821415611827576040518060400160405280600181526020017f30000000000000000000000000000000000000000000000000000000000000008152509050611987565b600082905060005b600082146118595780806118429061313c565b915050600a826118529190612f64565b915061182f565b60008167ffffffffffffffff81111561189b577f4e487b7100000000000000000000000000000000000000000000000000000000600052604160045260246000fd5b6040519080825280601f01601f1916602001820160405280156118cd5781602001600182028036833780820191505090505b5090505b60008514611980576001826118e69190612fef565b9150600a856118f59190613185565b60306119019190612f0e565b60f81b81838151811061193d577f4e487b7100000000000000000000000000000000000000000000000000000000600052603260045260246000fd5b60200101907effffffffffffffffffffffffffffffffffffffffffffffffffffffffffffff1916908160001a905350600a856119799190612f64565b94506118d1565b8093505050505b919050565b60008160405160200161199f91906129fb565b6040516020818303038152906040528051906020012060001c9050919050565b6119ca848484611583565b6119d684848484611dfb565b611a15576040517f08c379a0000000000000000000000000000000000000000000000000000000008152600401611a0c90612c45565b60405180910390fd5b50505050565b606060405180602001604052806000815250905090565b6060611a3d82611378565b611a7c576040517f08c379a0000000000000000000000000000000000000000000000000000000008152600401611a7390612de5565b60405180910390fd5b6000611a86611a1b565b90506000815111611aa65760405180602001604052806000815250611ad1565b80611ab0846117df565b604051602001611ac1929190612a12565b6040516020818303038152906040525b915050919050565b600081600001549050919050565b6060600082511415611b0a57604051806020016040528060008152509050611c81565b600060405180606001604052806040815260200161393d6040913990506000600360028551611b399190612f0e565b611b439190612f64565b6004611b4f9190612f95565b90506000602082611b609190612f0e565b67ffffffffffffffff811115611b9f577f4e487b7100000000000000000000000000000000000000000000000000000000600052604160045260246000fd5b6040519080825280601f01601f191660200182016040528015611bd15781602001600182028036833780820191505090505b509050818152600183018586518101602084015b81831015611c40576003830192508251603f8160121c168501518253600182019150603f81600c1c168501518253600182019150603f8160061c168501518253600182019150603f8116850151825360018201915050611be5565b600389510660018114611c5a5760028114611c6a57611c75565b613d3d60f01b6002830352611c75565b603d60f81b60018303525b50505050508093505050505b919050565b611ca0828260405180602001604052806000815250611f92565b5050565b611cad82611378565b611cec576040517f08c379a0000000000000000000000000000000000000000000000000000000008152600401611ce390612d45565b60405180910390fd5b80600660008481526020019081526020016000209080519060200190611d139291906121ce565b505050565b6001816000016000828254019250508190555050565b611dc8838383604051602401611d4693929190612c07565b6040516020818303038152906040527fe3849f79000000000000000000000000000000000000000000000000000000007bffffffffffffffffffffffffffffffffffffffffffffffffffffffff19166020820180517bffffffffffffffffffffffffffffffffffffffffffffffffffffffff8381831617835250505050611dcd565b505050565b60008151905060006a636f6e736f6c652e6c6f679050602083016000808483855afa5050505050565b505050565b6000611e1c8473ffffffffffffffffffffffffffffffffffffffff16611fed565b15611f85578373ffffffffffffffffffffffffffffffffffffffff1663150b7a02611e456113e4565b8786866040518563ffffffff1660e01b8152600401611e679493929190612b7e565b602060405180830381600087803b158015611e8157600080fd5b505af1925050508015611eb257506040513d601f19601f82011682018060405250810190611eaf9190612512565b60015b611f35573d8060008114611ee2576040519150601f19603f3d011682016040523d82523d6000602084013e611ee7565b606091505b50600081511415611f2d576040517f08c379a0000000000000000000000000000000000000000000000000000000008152600401611f2490612c45565b60405180910390fd5b805181602001fd5b63150b7a0260e01b7bffffffffffffffffffffffffffffffffffffffffffffffffffffffff1916817bffffffffffffffffffffffffffffffffffffffffffffffffffffffff191614915050611f8a565b600190505b949350505050565b611f9c8383612000565b611fa96000848484611dfb565b611fe8576040517f08c379a0000000000000000000000000000000000000000000000000000000008152600401611fdf90612c45565b60405180910390fd5b505050565b600080823b905060008111915050919050565b600073ffffffffffffffffffffffffffffffffffffffff168273ffffffffffffffffffffffffffffffffffffffff161415612070576040517f08c379a000000000000000000000000000000000000000000000000000000000815260040161206790612d65565b60405180910390fd5b61207981611378565b156120b9576040517f08c379a00000000000000000000000000000000000000000000000000000000081526004016120b090612c65565b60405180910390fd5b6120c560008383611df6565b6001600360008473ffffffffffffffffffffffffffffffffffffffff1673ffffffffffffffffffffffffffffffffffffffff16815260200190815260200160002060008282546121159190612f0e565b92505081905550816002600083815260200190815260200160002060006101000a81548173ffffffffffffffffffffffffffffffffffffffff021916908373ffffffffffffffffffffffffffffffffffffffff160217905550808273ffffffffffffffffffffffffffffffffffffffff16600073ffffffffffffffffffffffffffffffffffffffff167fddf252ad1be2c89b69c2b068fc378daa952ba7f163c4a11628f55a4df523b3ef60405160405180910390a45050565b8280546121da906130d9565b90600052602060002090601f0160209004810192826121fc5760008555612243565b82601f1061221557805160ff1916838001178555612243565b82800160010185558215612243579182015b82811115612242578251825591602001919060010190612227565b5b5090506122509190612254565b5090565b5b8082111561226d576000816000905550600101612255565b5090565b600061228461227f84612e85565b612e60565b90508281526020810184848401111561229c57600080fd5b6122a7848285613097565b509392505050565b6000813590506122be816138bb565b92915050565b6000813590506122d3816138d2565b92915050565b6000813590506122e8816138e9565b92915050565b6000815190506122fd816138e9565b92915050565b600082601f83011261231457600080fd5b8135612324848260208601612271565b91505092915050565b60008135905061233c81613900565b92915050565b60006020828403121561235457600080fd5b6000612362848285016122af565b91505092915050565b6000806040838503121561237e57600080fd5b600061238c858286016122af565b925050602061239d858286016122af565b9150509250929050565b6000806000606084860312156123bc57600080fd5b60006123ca868287016122af565b93505060206123db868287016122af565b92505060406123ec8682870161232d565b9150509250925092565b6000806000806080858703121561240c57600080fd5b600061241a878288016122af565b945050602061242b878288016122af565b935050604061243c8782880161232d565b925050606085013567ffffffffffffffff81111561245957600080fd5b61246587828801612303565b91505092959194509250565b6000806040838503121561248457600080fd5b6000612492858286016122af565b92505060206124a3858286016122c4565b9150509250929050565b600080604083850312156124c057600080fd5b60006124ce858286016122af565b92505060206124df8582860161232d565b9150509250929050565b6000602082840312156124fb57600080fd5b6000612509848285016122d9565b91505092915050565b60006020828403121561252457600080fd5b6000612532848285016122ee565b91505092915050565b60006020828403121561254d57600080fd5b600061255b8482850161232d565b91505092915050565b61256d81613023565b82525050565b61257c81613035565b82525050565b600061258d82612ecb565b6125978185612ee1565b93506125a78185602086016130a6565b6125b081613272565b840191505092915050565b60006125c682612ed6565b6125d08185612ef2565b93506125e08185602086016130a6565b6125e981613272565b840191505092915050565b60006125ff82612ed6565b6126098185612f03565b93506126198185602086016130a6565b80840191505092915050565b60008154612632816130d9565b61263c8186612f03565b9450600182166000811461265757600181146126685761269b565b60ff1983168652818601935061269b565b61267185612eb6565b60005b8381101561269357815481890152600182019150602081019050612674565b838801955050505b50505092915050565b60006126b1606183612f03565b91506126bc82613283565b606182019050919050565b60006126d4603283612ef2565b91506126df8261331e565b604082019050919050565b60006126f7601c83612ef2565b91506127028261336d565b602082019050919050565b600061271a600a83612f03565b915061272582613396565b600a82019050919050565b600061273d602483612ef2565b9150612748826133bf565b604082019050919050565b6000612760601983612ef2565b915061276b8261340e565b602082019050919050565b6000612783600b83612f03565b915061278e82613437565b600b82019050919050565b60006127a6602c83612ef2565b91506127b182613460565b604082019050919050565b60006127c9603883612ef2565b91506127d4826134af565b604082019050919050565b60006127ec602a83612ef2565b91506127f7826134fe565b604082019050919050565b600061280f602983612ef2565b915061281a8261354d565b604082019050919050565b6000612832602e83612ef2565b915061283d8261359c565b604082019050919050565b6000612855600283612f03565b9150612860826135eb565b600282019050919050565b6000612878602083612ef2565b915061288382613614565b602082019050919050565b600061289b603183612ef2565b91506128a68261363d565b604082019050919050565b60006128be602c83612ef2565b91506128c98261368c565b604082019050919050565b60006128e1602983612ef2565b91506128ec826136db565b604082019050919050565b6000612904602f83612ef2565b915061290f8261372a565b604082019050919050565b6000612927600a83612f03565b915061293282613779565b600a82019050919050565b600061294a602183612ef2565b9150612955826137a2565b604082019050919050565b600061296d600a83612f03565b9150612978826137f1565b600a82019050919050565b6000612990601d83612f03565b915061299b8261381a565b601d82019050919050565b60006129b3601183612f03565b91506129be82613843565b601182019050919050565b60006129d6603183612ef2565b91506129e18261386c565b604082019050919050565b6129f58161308d565b82525050565b6000612a0782846125f4565b915081905092915050565b6000612a1e82856125f4565b9150612a2a82846125f4565b91508190509392505050565b6000612a4282866125f4565b9150612a4e82856125f4565b9150612a5a82846125f4565b9150819050949350505050565b6000612a738285612625565b9150612a7f82846125f4565b9150612a8a826129a6565b91508190509392505050565b6000612aa18261270d565b9150612aad82846125f4565b915081905092915050565b6000612ac382612776565b9150612acf82846125f4565b915081905092915050565b6000612ae58261291a565b9150612af182856125f4565b9150612afc826126a4565b9150612b0882846125f4565b9150612b1382612848565b91508190509392505050565b6000612b2a82612960565b9150612b3682846125f4565b915081905092915050565b6000612b4c82612983565b9150612b5882846125f4565b915081905092915050565b6000602082019050612b786000830184612564565b92915050565b6000608082019050612b936000830187612564565b612ba06020830186612564565b612bad60408301856129ec565b8181036060830152612bbf8184612582565b905095945050505050565b6000602082019050612bdf6000830184612573565b92915050565b60006020820190508181036000830152612bff81846125bb565b905092915050565b60006060820190508181036000830152612c2181866125bb565b9050612c3060208301856129ec565b612c3d6040830184612564565b949350505050565b60006020820190508181036000830152612c5e816126c7565b9050919050565b60006020820190508181036000830152612c7e816126ea565b9050919050565b60006020820190508181036000830152612c9e81612730565b9050919050565b60006020820190508181036000830152612cbe81612753565b9050919050565b60006020820190508181036000830152612cde81612799565b9050919050565b60006020820190508181036000830152612cfe816127bc565b9050919050565b60006020820190508181036000830152612d1e816127df565b9050919050565b60006020820190508181036000830152612d3e81612802565b9050919050565b60006020820190508181036000830152612d5e81612825565b9050919050565b60006020820190508181036000830152612d7e8161286b565b9050919050565b60006020820190508181036000830152612d9e8161288e565b9050919050565b60006020820190508181036000830152612dbe816128b1565b9050919050565b60006020820190508181036000830152612dde816128d4565b9050919050565b60006020820190508181036000830152612dfe816128f7565b9050919050565b60006020820190508181036000830152612e1e8161293d565b9050919050565b60006020820190508181036000830152612e3e816129c9565b9050919050565b6000602082019050612e5a60008301846129ec565b92915050565b6000612e6a612e7b565b9050612e76828261310b565b919050565b6000604051905090565b600067ffffffffffffffff821115612ea057612e9f613243565b5b612ea982613272565b9050602081019050919050565b60008190508160005260206000209050919050565b600081519050919050565b600081519050919050565b600082825260208201905092915050565b600082825260208201905092915050565b600081905092915050565b6000612f198261308d565b9150612f248361308d565b9250827fffffffffffffffffffffffffffffffffffffffffffffffffffffffffffffffff03821115612f5957612f586131b6565b5b828201905092915050565b6000612f6f8261308d565b9150612f7a8361308d565b925082612f8a57612f896131e5565b5b828204905092915050565b6000612fa08261308d565b9150612fab8361308d565b9250817fffffffffffffffffffffffffffffffffffffffffffffffffffffffffffffffff0483118215151615612fe457612fe36131b6565b5b828202905092915050565b6000612ffa8261308d565b91506130058361308d565b925082821015613018576130176131b6565b5b828203905092915050565b600061302e8261306d565b9050919050565b60008115159050919050565b60007fffffffff0000000000000000000000000000000000000000000000000000000082169050919050565b600073ffffffffffffffffffffffffffffffffffffffff82169050919050565b6000819050919050565b82818337600083830152505050565b60005b838110156130c45780820151818401526020810190506130a9565b838111156130d3576000848401525b50505050565b600060028204905060018216806130f157607f821691505b6020821081141561310557613104613214565b5b50919050565b61311482613272565b810181811067ffffffffffffffff8211171561313357613132613243565b5b80604052505050565b60006131478261308d565b91507fffffffffffffffffffffffffffffffffffffffffffffffffffffffffffffffff82141561317a576131796131b6565b5b600182019050919050565b60006131908261308d565b915061319b8361308d565b9250826131ab576131aa6131e5565b5b828206905092915050565b7f4e487b7100000000000000000000000000000000000000000000000000000000600052601160045260246000fd5b7f4e487b7100000000000000000000000000000000000000000000000000000000600052601260045260246000fd5b7f4e487b7100000000000000000000000000000000000000000000000000000000600052602260045260246000fd5b7f4e487b7100000000000000000000000000000000000000000000000000000000600052604160045260246000fd5b6000601f19601f8301169050919050565b7f222c20226465736372697074696f6e223a20224120686967686c79206163636c60008201527f61696d656420636f6c6c656374696f6e206f66205349474e532e222c2022696d60208201527f616765223a2022646174613a696d6167652f7376672b786d6c3b62617365363460408201527f2c00000000000000000000000000000000000000000000000000000000000000606082015250565b7f4552433732313a207472616e7366657220746f206e6f6e20455243373231526560008201527f63656976657220696d706c656d656e7465720000000000000000000000000000602082015250565b7f4552433732313a20746f6b656e20616c7265616479206d696e74656400000000600082015250565b7f54484952445f574f524400000000000000000000000000000000000000000000600082015250565b7f4552433732313a207472616e7366657220746f20746865207a65726f2061646460008201527f7265737300000000000000000000000000000000000000000000000000000000602082015250565b7f4552433732313a20617070726f766520746f2063616c6c657200000000000000600082015250565b7f5345434f4e445f574f5244000000000000000000000000000000000000000000600082015250565b7f4552433732313a206f70657261746f7220717565727920666f72206e6f6e657860008201527f697374656e7420746f6b656e0000000000000000000000000000000000000000602082015250565b7f4552433732313a20617070726f76652063616c6c6572206973206e6f74206f7760008201527f6e6572206e6f7220617070726f76656420666f7220616c6c0000000000000000602082015250565b7f4552433732313a2062616c616e636520717565727920666f7220746865207a6560008201527f726f206164647265737300000000000000000000000000000000000000000000602082015250565b7f4552433732313a206f776e657220717565727920666f72206e6f6e657869737460008201527f656e7420746f6b656e0000000000000000000000000000000000000000000000602082015250565b7f45524337323155524953746f726167653a2055524920736574206f66206e6f6e60008201527f6578697374656e7420746f6b656e000000000000000000000000000000000000602082015250565b7f227d000000000000000000000000000000000000000000000000000000000000600082015250565b7f4552433732313a206d696e7420746f20746865207a65726f2061646472657373600082015250565b7f45524337323155524953746f726167653a2055524920717565727920666f722060008201527f6e6f6e6578697374656e7420746f6b656e000000000000000000000000000000602082015250565b7f4552433732313a20617070726f76656420717565727920666f72206e6f6e657860008201527f697374656e7420746f6b656e0000000000000000000000000000000000000000602082015250565b7f4552433732313a207472616e73666572206f6620746f6b656e2074686174206960008201527f73206e6f74206f776e0000000000000000000000000000000000000000000000602082015250565b7f4552433732314d657461646174613a2055524920717565727920666f72206e6f60008201527f6e6578697374656e7420746f6b656e0000000000000000000000000000000000602082015250565b7f7b226e616d65223a202200000000000000000000000000000000000000000000600082015250565b7f4552433732313a20617070726f76616c20746f2063757272656e74206f776e6560008201527f7200000000000000000000000000000000000000000000000000000000000000602082015250565b7f46495253545f574f524400000000000000000000000000000000000000000000600082015250565b7f646174613a6170706c69636174696f6e2f6a736f6e3b6261736536342c000000600082015250565b7f3c2f746578743e3c2f673e3c2f7376673e000000000000000000000000000000600082015250565b7f4552433732313a207472616e736665722063616c6c6572206973206e6f74206f60008201527f776e6572206e6f7220617070726f766564000000000000000000000000000000602082015250565b6138c481613023565b81146138cf57600080fd5b50565b6138db81613035565b81146138e657600080fd5b50565b6138f281613041565b81146138fd57600080fd5b50565b6139098161308d565b811461391457600080fd5b5056fe416e204e465420772f20494420257320686173206265656e206d696e74656420746f2025734142434445464748494a4b4c4d4e4f505152535455565758595a6162636465666768696a6b6c6d6e6f707172737475767778797a303132333435363738392b2fa2646970667358221220c66bf86396997f0a89141dfadc2e9eff8cc47de28a215efaf05f7d79bcbf103664736f6c634300080400333c73766720786d6c6e733d27687474703a2f2f7777772e77332e6f72672f323030302f73766727207072657365727665417370656374526174696f3d27784d696e594d696e206d656574272076696577426f783d273020302033353020333530273e3c646566733e3c66696c7465722069643d274d7946696c746572272066696c746572556e6974733d277573657253706163654f6e5573652720783d27302720793d2730272077696474683d2732303027206865696768743d27313230273e3c6665476175737369616e426c757220696e3d27536f75726365416c7068612720737464446576696174696f6e3d27342720726573756c743d27626c757227202f3e3c66654f666673657420696e3d27626c7572272064783d2734272064793d27342720726573756c743d276f6666736574426c757227202f3e3c666553706563756c61724c69676874696e6720696e3d27626c75722720737572666163655363616c653d2735272073706563756c6172436f6e7374616e743d272e3735272073706563756c61724578706f6e656e743d27323027206c69676874696e672d636f6c6f723d27236262626262622720726573756c743d27737065634f7574273e3c6665506f696e744c6967687420783d272d353030302720793d272d313030303027207a3d27323030303027202f3e3c2f666553706563756c61724c69676874696e673e3c6665436f6d706f7369746520696e3d27737065634f75742720696e323d27536f75726365416c70686127206f70657261746f723d27696e2720726573756c743d27737065634f757427202f3e3c6665436f6d706f7369746520696e3d27536f75726365477261706869632720696e323d27737065634f757427206f70657261746f723d2761726974686d6574696327206b313d273027206b323d273127206b333d273127206b343d27302720726573756c743d276c69745061696e7427202f3e3c66654d657267653e3c66654d657267654e6f646520696e3d276f6666736574426c757227202f3e3c66654d657267654e6f646520696e3d276c69745061696e7427202f3e3c2f66654d657267653e3c2f66696c7465723e3c2f646566733e3c7265637420783d27312720793d2731272077696474683d2731393827206865696768743d27313138272066696c6c3d272363636363636327202f3e3c672066696c7465723d2775726c28234d7946696c74657229273e3c706174682066696c6c3d276e6f6e6527207374726f6b653d272344393030303027207374726f6b652d77696474683d2731302720643d274d35302c39302043302c393020302c33302035302c3330204c3135302c333020433230302c3330203230302c3930203135302c3930207a27202f3e3c746578742066696c6c3d272346464646464627207374726f6b653d27626c61636b2720666f6e742d73697a653d2731352720666f6e742d66616d696c793d2756657264616e612720746578742d616e63686f723d276d6964646c652720783d2739352720793d273635273e54686973206973206d79204e465420636f6e74726163742e204275696c7420627920544c43",
  "linkReferences": {},
  "deployedLinkReferences": {}
}