{
  "_format": "hh-sol-artifact-1",
  "contractName": "MyEpicNFT",
  "sourceName": "contracts/MyNFT.sol",
  "abi": [
    {
      "inputs": [],
      "stateMutability": "nonpayable",
      "type": "constructor"
    },
    {
      "anonymous": false,
      "inputs": [
        {
          "indexed": true,
          "internalType": "address",
          "name": "owner",
          "type": "address"
        },
        {
          "indexed": true,
          "internalType": "address",
          "name": "approved",
          "type": "address"
        },
        {
          "indexed": true,
          "internalType": "uint256",
          "name": "tokenId",
          "type": "uint256"
        }
      ],
      "name": "Approval",
      "type": "event"
    },
    {
      "anonymous": false,
      "inputs": [
        {
          "indexed": true,
          "internalType": "address",
          "name": "owner",
          "type": "address"
        },
        {
          "indexed": true,
          "internalType": "address",
          "name": "operator",
          "type": "address"
        },
        {
          "indexed": false,
          "internalType": "bool",
          "name": "approved",
          "type": "bool"
        }
      ],
      "name": "ApprovalForAll",
      "type": "event"
    },
    {
      "anonymous": false,
      "inputs": [
        {
          "indexed": false,
          "internalType": "address",
          "name": "sender",
          "type": "address"
        },
        {
          "indexed": false,
          "internalType": "uint256",
          "name": "tokenId",
          "type": "uint256"
        }
      ],
      "name": "NewEpicNFTMinted",
      "type": "event"
    },
    {
      "anonymous": false,
      "inputs": [
        {
          "indexed": true,
          "internalType": "address",
          "name": "from",
          "type": "address"
        },
        {
          "indexed": true,
          "internalType": "address",
          "name": "to",
          "type": "address"
        },
        {
          "indexed": true,
          "internalType": "uint256",
          "name": "tokenId",
          "type": "uint256"
        }
      ],
      "name": "Transfer",
      "type": "event"
    },
    {
      "inputs": [
        {
          "internalType": "address",
          "name": "to",
          "type": "address"
        },
        {
          "internalType": "uint256",
          "name": "tokenId",
          "type": "uint256"
        }
      ],
      "name": "approve",
      "outputs": [],
      "stateMutability": "nonpayable",
      "type": "function"
    },
    {
      "inputs": [
        {
          "internalType": "address",
          "name": "owner",
          "type": "address"
        }
      ],
      "name": "balanceOf",
      "outputs": [
        {
          "internalType": "uint256",
          "name": "",
          "type": "uint256"
        }
      ],
      "stateMutability": "view",
      "type": "function"
    },
    {
      "inputs": [
        {
          "internalType": "uint256",
          "name": "tokenId",
          "type": "uint256"
        }
      ],
      "name": "getApproved",
      "outputs": [
        {
          "internalType": "address",
          "name": "",
          "type": "address"
        }
      ],
      "stateMutability": "view",
      "type": "function"
    },
    {
      "inputs": [
        {
          "internalType": "address",
          "name": "owner",
          "type": "address"
        },
        {
          "internalType": "address",
          "name": "operator",
          "type": "address"
        }
      ],
      "name": "isApprovedForAll",
      "outputs": [
        {
          "internalType": "bool",
          "name": "",
          "type": "bool"
        }
      ],
      "stateMutability": "view",
      "type": "function"
    },
    {
      "inputs": [],
      "name": "makeAnNFT",
      "outputs": [],
      "stateMutability": "nonpayable",
      "type": "function"
    },
    {
      "inputs": [],
      "name": "name",
      "outputs": [
        {
          "internalType": "string",
          "name": "",
          "type": "string"
        }
      ],
      "stateMutability": "view",
      "type": "function"
    },
    {
      "inputs": [
        {
          "internalType": "uint256",
          "name": "tokenId",
          "type": "uint256"
        }
      ],
      "name": "ownerOf",
      "outputs": [
        {
          "internalType": "address",
          "name": "",
          "type": "address"
        }
      ],
      "stateMutability": "view",
      "type": "function"
    },
    {
      "inputs": [
        {
          "internalType": "uint256",
          "name": "tokenId",
          "type": "uint256"
        }
      ],
      "name": "pickRandomFirstWord",
      "outputs": [
        {
          "internalType": "string",
          "name": "",
          "type": "string"
        }
      ],
      "stateMutability": "view",
      "type": "function"
    },
    {
      "inputs": [
        {
          "internalType": "uint256",
          "name": "tokenId",
          "type": "uint256"
        }
      ],
      "name": "pickRandomSecondWord",
      "outputs": [
        {
          "internalType": "string",
          "name": "",
          "type": "string"
        }
      ],
      "stateMutability": "view",
      "type": "function"
    },
    {
      "inputs": [
        {
          "internalType": "uint256",
          "name": "tokenId",
          "type": "uint256"
        }
      ],
      "name": "pickRandomThirdWord",
      "outputs": [
        {
          "internalType": "string",
          "name": "",
          "type": "string"
        }
      ],
      "stateMutability": "view",
      "type": "function"
    },
    {
      "inputs": [
        {
          "internalType": "address",
          "name": "from",
          "type": "address"
        },
        {
          "internalType": "address",
          "name": "to",
          "type": "address"
        },
        {
          "internalType": "uint256",
          "name": "tokenId",
          "type": "uint256"
        }
      ],
      "name": "safeTransferFrom",
      "outputs": [],
      "stateMutability": "nonpayable",
      "type": "function"
    },
    {
      "inputs": [
        {
          "internalType": "address",
          "name": "from",
          "type": "address"
        },
        {
          "internalType": "address",
          "name": "to",
          "type": "address"
        },
        {
          "internalType": "uint256",
          "name": "tokenId",
          "type": "uint256"
        },
        {
          "internalType": "bytes",
          "name": "_data",
          "type": "bytes"
        }
      ],
      "name": "safeTransferFrom",
      "outputs": [],
      "stateMutability": "nonpayable",
      "type": "function"
    },
    {
      "inputs": [
        {
          "internalType": "address",
          "name": "operator",
          "type": "address"
        },
        {
          "internalType": "bool",
          "name": "approved",
          "type": "bool"
        }
      ],
      "name": "setApprovalForAll",
      "outputs": [],
      "stateMutability": "nonpayable",
      "type": "function"
    },
    {
      "inputs": [
        {
          "internalType": "bytes4",
          "name": "interfaceId",
          "type": "bytes4"
        }
      ],
      "name": "supportsInterface",
      "outputs": [
        {
          "internalType": "bool",
          "name": "",
          "type": "bool"
        }
      ],
      "stateMutability": "view",
      "type": "function"
    },
    {
      "inputs": [],
      "name": "symbol",
      "outputs": [
        {
          "internalType": "string",
          "name": "",
          "type": "string"
        }
      ],
      "stateMutability": "view",
      "type": "function"
    },
    {
      "inputs": [
        {
          "internalType": "uint256",
          "name": "tokenId",
          "type": "uint256"
        }
      ],
      "name": "tokenURI",
      "outputs": [
        {
          "internalType": "string",
          "name": "",
          "type": "string"
        }
      ],
      "stateMutability": "view",
      "type": "function"
    },
    {
      "inputs": [
        {
          "internalType": "address",
          "name": "from",
          "type": "address"
        },
        {
          "internalType": "address",
          "name": "to",
          "type": "address"
        },
        {
          "internalType": "uint256",
          "name": "tokenId",
          "type": "uint256"
        }
      ],
      "name": "transferFrom",
      "outputs": [],
      "stateMutability": "nonpayable",
      "type": "function"
    }
  ],
  "bytecode": "0x608060405260405180610480016040528061045a81526020016200433861045a9139600890805190602001906200003892919062000662565b506040518060c001604052806040518060400160405280600581526020017f204143452000000000000000000000000000000000000000000000000000000081525081526020016040518060400160405280600581526020017f2045474f2000000000000000000000000000000000000000000000000000000081525081526020016040518060400160405280600581526020017f20464f582000000000000000000000000000000000000000000000000000000081525081526020016040518060400160405280600581526020017f204943452000000000000000000000000000000000000000000000000000000081525081526020016040518060400160405280600581526020017f205341472000000000000000000000000000000000000000000000000000000081525081526020016040518060400160405280600581526020017f20534144200000000000000000000000000000000000000000000000000000008152508152506009906006620001b6929190620006f3565b506040518060c001604052806040518060400160405280600581526020017f20424f4f2000000000000000000000000000000000000000000000000000000081525081526020016040518060400160405280600581526020017f2046414e2000000000000000000000000000000000000000000000000000000081525081526020016040518060400160405280600581526020017f2046554e2000000000000000000000000000000000000000000000000000000081525081526020016040518060400160405280600581526020017f204f4c442000000000000000000000000000000000000000000000000000000081525081526020016040518060400160405280600581526020017f205345412000000000000000000000000000000000000000000000000000000081525081526020016040518060400160405280600581526020017f2057525920000000000000000000000000000000000000000000000000000000815250815250600a90600662000334929190620006f3565b506040518060c001604052806040518060400160405280600581526020017f204249532000000000000000000000000000000000000000000000000000000081525081526020016040518060400160405280600581526020017f204641542000000000000000000000000000000000000000000000000000000081525081526020016040518060400160405280600581526020017f2047454d2000000000000000000000000000000000000000000000000000000081525081526020016040518060400160405280600581526020017f204f4f482000000000000000000000000000000000000000000000000000000081525081526020016040518060400160405280600581526020017f20574f572000000000000000000000000000000000000000000000000000000081525081526020016040518060400160405280600581526020017f2057454520000000000000000000000000000000000000000000000000000000815250815250600b906006620004b2929190620006f3565b50348015620004c057600080fd5b506040518060400160405280600581526020017f4d794e46540000000000000000000000000000000000000000000000000000008152506040518060400160405280600381526020017f544c43000000000000000000000000000000000000000000000000000000000081525081600090805190602001906200054592919062000662565b5080600190805190602001906200055e92919062000662565b5050506200059060405180606001604052806025815260200162004792602591396200059660201b620012ae1760201c565b62000914565b6200063681604051602401620005ad919062000828565b6040516020818303038152906040527f41304fac000000000000000000000000000000000000000000000000000000007bffffffffffffffffffffffffffffffffffffffffffffffffffffffff19166020820180517bffffffffffffffffffffffffffffffffffffffffffffffffffffffff83818316178352505050506200063960201b60201c565b50565b60008151905060006a636f6e736f6c652e6c6f679050602083016000808483855afa5050505050565b82805462000670906200089e565b90600052602060002090601f016020900481019282620006945760008555620006e0565b82601f10620006af57805160ff1916838001178555620006e0565b82800160010185558215620006e0579182015b82811115620006df578251825591602001919060010190620006c2565b5b509050620006ef91906200075a565b5090565b82805482825590600052602060002090810192821562000747579160200282015b82811115620007465782518290805190602001906200073592919062000662565b509160200191906001019062000714565b5b50905062000756919062000779565b5090565b5b80821115620007755760008160009055506001016200075b565b5090565b5b808211156200079d5760008181620007939190620007a1565b506001016200077a565b5090565b508054620007af906200089e565b6000825580601f10620007c35750620007e4565b601f016020900490600052602060002090810190620007e391906200075a565b5b50565b6000620007f4826200084c565b62000800818562000857565b93506200081281856020860162000868565b6200081d8162000903565b840191505092915050565b60006020820190508181036000830152620008448184620007e7565b905092915050565b600081519050919050565b600082825260208201905092915050565b60005b83811015620008885780820151818401526020810190506200086b565b8381111562000898576000848401525b50505050565b60006002820490506001821680620008b757607f821691505b60208210811415620008ce57620008cd620008d4565b5b50919050565b7f4e487b7100000000000000000000000000000000000000000000000000000000600052602260045260246000fd5b6000601f19601f8301169050919050565b613a1480620009246000396000f3fe608060405234801561001057600080fd5b506004361061010b5760003560e01c806370a08231116100a2578063b88d4fde11610071578063b88d4fde146102dc578063c575757a146102f8578063c87b56dd14610328578063e4d098e114610358578063e985e9c5146103625761010b565b806370a082311461024257806395d89b4114610272578063a22cb46514610290578063b187301f146102ac5761010b565b806323b872dd116100de57806323b872dd146101aa5780632de38d68146101c657806342842e0e146101f65780636352211e146102125761010b565b806301ffc9a71461011057806306fdde0314610140578063081812fc1461015e578063095ea7b31461018e575b600080fd5b61012a60048036038101906101259190612522565b610392565b6040516101379190612c2c565b60405180910390f35b610148610474565b6040516101559190612c47565b60405180910390f35b61017860048036038101906101739190612574565b610506565b6040516101859190612b9c565b60405180910390f35b6101a860048036038101906101a391906124e6565b61058b565b005b6101c460048036038101906101bf91906123e0565b6106a3565b005b6101e060048036038101906101db9190612574565b610703565b6040516101ed9190612c47565b60405180910390f35b610210600480360381019061020b91906123e0565b610821565b005b61022c60048036038101906102279190612574565b610841565b6040516102399190612b9c565b60405180910390f35b61025c6004803603810190610257919061237b565b6108f3565b6040516102699190612ea7565b60405180910390f35b61027a6109ab565b6040516102879190612c47565b60405180910390f35b6102aa60048036038101906102a591906124aa565b610a3d565b005b6102c660048036038101906102c19190612574565b610bbe565b6040516102d39190612c47565b60405180910390f35b6102f660048036038101906102f1919061242f565b610cdc565b005b610312600480360381019061030d9190612574565b610d3e565b60405161031f9190612c47565b60405180910390f35b610342600480360381019061033d9190612574565b610e5c565b60405161034f9190612c47565b60405180910390f35b610360610fae565b005b61037c600480360381019061037791906123a4565b61121a565b6040516103899190612c2c565b60405180910390f35b60007f80ac58cd000000000000000000000000000000000000000000000000000000007bffffffffffffffffffffffffffffffffffffffffffffffffffffffff1916827bffffffffffffffffffffffffffffffffffffffffffffffffffffffff1916148061045d57507f5b5e139f000000000000000000000000000000000000000000000000000000007bffffffffffffffffffffffffffffffffffffffffffffffffffffffff1916827bffffffffffffffffffffffffffffffffffffffffffffffffffffffff1916145b8061046d575061046c82611347565b5b9050919050565b6060600080546104839061313b565b80601f01602080910402602001604051908101604052809291908181526020018280546104af9061313b565b80156104fc5780601f106104d1576101008083540402835291602001916104fc565b820191906000526020600020905b8154815290600101906020018083116104df57829003601f168201915b5050505050905090565b6000610511826113b1565b610550576040517f08c379a000000000000000000000000000000000000000000000000000000000815260040161054790612e07565b60405180910390fd5b6004600083815260200190815260200160002060009054906101000a900473ffffffffffffffffffffffffffffffffffffffff169050919050565b600061059682610841565b90508073ffffffffffffffffffffffffffffffffffffffff168373ffffffffffffffffffffffffffffffffffffffff161415610607576040517f08c379a00000000000000000000000000000000000000000000000000000000081526004016105fe90612e67565b60405180910390fd5b8073ffffffffffffffffffffffffffffffffffffffff1661062661141d565b73ffffffffffffffffffffffffffffffffffffffff16148061065557506106548161064f61141d565b61121a565b5b610694576040517f08c379a000000000000000000000000000000000000000000000000000000000815260040161068b90612d47565b60405180910390fd5b61069e8383611425565b505050565b6106b46106ae61141d565b826114de565b6106f3576040517f08c379a00000000000000000000000000000000000000000000000000000000081526004016106ea90612e87565b60405180910390fd5b6106fe8383836115bc565b505050565b6060600061073761071384611818565b6040516020016107239190612b58565b6040516020818303038152906040526119c5565b90506009805490508161074a91906131e7565b905060098181548110610786577f4e487b7100000000000000000000000000000000000000000000000000000000600052603260045260246000fd5b90600052602060002001805461079b9061313b565b80601f01602080910402602001604051908101604052809291908181526020018280546107c79061313b565b80156108145780601f106107e957610100808354040283529160200191610814565b820191906000526020600020905b8154815290600101906020018083116107f757829003601f168201915b5050505050915050919050565b61083c83838360405180602001604052806000815250610cdc565b505050565b6000806002600084815260200190815260200160002060009054906101000a900473ffffffffffffffffffffffffffffffffffffffff169050600073ffffffffffffffffffffffffffffffffffffffff168173ffffffffffffffffffffffffffffffffffffffff1614156108ea576040517f08c379a00000000000000000000000000000000000000000000000000000000081526004016108e190612d87565b60405180910390fd5b80915050919050565b60008073ffffffffffffffffffffffffffffffffffffffff168273ffffffffffffffffffffffffffffffffffffffff161415610964576040517f08c379a000000000000000000000000000000000000000000000000000000000815260040161095b90612d67565b60405180910390fd5b600360008373ffffffffffffffffffffffffffffffffffffffff1673ffffffffffffffffffffffffffffffffffffffff168152602001908152602001600020549050919050565b6060600180546109ba9061313b565b80601f01602080910402602001604051908101604052809291908181526020018280546109e69061313b565b8015610a335780601f10610a0857610100808354040283529160200191610a33565b820191906000526020600020905b815481529060010190602001808311610a1657829003601f168201915b5050505050905090565b610a4561141d565b73ffffffffffffffffffffffffffffffffffffffff168273ffffffffffffffffffffffffffffffffffffffff161415610ab3576040517f08c379a0000000000000000000000000000000000000000000000000000000008152600401610aaa90612d07565b60405180910390fd5b8060056000610ac061141d565b73ffffffffffffffffffffffffffffffffffffffff1673ffffffffffffffffffffffffffffffffffffffff16815260200190815260200160002060008473ffffffffffffffffffffffffffffffffffffffff1673ffffffffffffffffffffffffffffffffffffffff16815260200190815260200160002060006101000a81548160ff0219169083151502179055508173ffffffffffffffffffffffffffffffffffffffff16610b6d61141d565b73ffffffffffffffffffffffffffffffffffffffff167f17307eab39ab6107e8899845ad3d59bd9653f200f220920489ca2b5937696c3183604051610bb29190612c2c565b60405180910390a35050565b60606000610bf2610bce84611818565b604051602001610bde9190612af1565b6040516020818303038152906040526119c5565b9050600a8054905081610c0591906131e7565b9050600a8181548110610c41577f4e487b7100000000000000000000000000000000000000000000000000000000600052603260045260246000fd5b906000526020600020018054610c569061313b565b80601f0160208091040260200160405190810160405280929190818152602001828054610c829061313b565b8015610ccf5780601f10610ca457610100808354040283529160200191610ccf565b820191906000526020600020905b815481529060010190602001808311610cb257829003601f168201915b5050505050915050919050565b610ced610ce761141d565b836114de565b610d2c576040517f08c379a0000000000000000000000000000000000000000000000000000000008152600401610d2390612e87565b60405180910390fd5b610d38848484846119f8565b50505050565b60606000610d72610d4e84611818565b604051602001610d5e9190612acf565b6040516020818303038152906040526119c5565b9050600b8054905081610d8591906131e7565b9050600b8181548110610dc1577f4e487b7100000000000000000000000000000000000000000000000000000000600052603260045260246000fd5b906000526020600020018054610dd69061313b565b80601f0160208091040260200160405190810160405280929190818152602001828054610e029061313b565b8015610e4f5780601f10610e2457610100808354040283529160200191610e4f565b820191906000526020600020905b815481529060010190602001808311610e3257829003601f168201915b5050505050915050919050565b6060610e67826113b1565b610ea6576040517f08c379a0000000000000000000000000000000000000000000000000000000008152600401610e9d90612de7565b60405180910390fd5b6000600660008481526020019081526020016000208054610ec69061313b565b80601f0160208091040260200160405190810160405280929190818152602001828054610ef29061313b565b8015610f3f5780601f10610f1457610100808354040283529160200191610f3f565b820191906000526020600020905b815481529060010190602001808311610f2257829003601f168201915b505050505090506000610f50611a54565b9050600081511415610f66578192505050610fa9565b600082511115610f9b578082604051602001610f83929190612a4b565b60405160208183030381529060405292505050610fa9565b610fa484611a6b565b925050505b919050565b6000610fba6007611b12565b90506000610fc782610703565b90506000610fd483610bbe565b90506000610fe184610d3e565b90506000838383604051602001610ffa93929190612a6f565b60405160208183030381529060405290506000600882604051602001611021929190612aa0565b60405160208183030381529060405290506110706040518060400160405280601581526020017f2a2a2a2a2a2a2a2a2a2a2a2a2a2a2a2a2a2a2a2a2a00000000000000000000008152506112ae565b611079816112ae565b6110b76040518060400160405280601681526020017f2a2a2a2a2a2a2a2a2a2a2a2a2a2a2a2a2a2a2a2a2a0a000000000000000000008152506112ae565b60006110eb836110c684611b20565b6040516020016110d7929190612b13565b604051602081830303815290604052611b20565b90506000816040516020016111009190612b7a565b604051602081830303815290604052905061114f6040518060400160405280601581526020017f0a2d2d2d2d2d2d2d2d2d2d2d2d2d2d2d2d2d2d2d2d00000000000000000000008152506112ae565b611158816112ae565b6111966040518060400160405280601581526020017f2d2d2d2d2d2d2d2d2d2d2d2d2d2d2d2d2d2d2d2d0a00000000000000000000008152506112ae565b6111a03389611cbf565b6111aa8882611cdd565b6111b46007611d51565b6111d760405180606001604052806025815260200161397a602591398933611d67565b7febb98688741ffa4c7589bf325de30cf7becb63de567842e1ccdb6cb949fdc82c3389604051611208929190612c03565b60405180910390a15050505050505050565b6000600560008473ffffffffffffffffffffffffffffffffffffffff1673ffffffffffffffffffffffffffffffffffffffff16815260200190815260200160002060008373ffffffffffffffffffffffffffffffffffffffff1673ffffffffffffffffffffffffffffffffffffffff16815260200190815260200160002060009054906101000a900460ff16905092915050565b611344816040516024016112c29190612c47565b6040516020818303038152906040527f41304fac000000000000000000000000000000000000000000000000000000007bffffffffffffffffffffffffffffffffffffffffffffffffffffffff19166020820180517bffffffffffffffffffffffffffffffffffffffffffffffffffffffff8381831617835250505050611e06565b50565b60007f01ffc9a7000000000000000000000000000000000000000000000000000000007bffffffffffffffffffffffffffffffffffffffffffffffffffffffff1916827bffffffffffffffffffffffffffffffffffffffffffffffffffffffff1916149050919050565b60008073ffffffffffffffffffffffffffffffffffffffff166002600084815260200190815260200160002060009054906101000a900473ffffffffffffffffffffffffffffffffffffffff1673ffffffffffffffffffffffffffffffffffffffff1614159050919050565b600033905090565b816004600083815260200190815260200160002060006101000a81548173ffffffffffffffffffffffffffffffffffffffff021916908373ffffffffffffffffffffffffffffffffffffffff160217905550808273ffffffffffffffffffffffffffffffffffffffff1661149883610841565b73ffffffffffffffffffffffffffffffffffffffff167f8c5be1e5ebec7d5bd14f71427d1e84f3dd0314c0f7b2291e5b200ac8c7c3b92560405160405180910390a45050565b60006114e9826113b1565b611528576040517f08c379a000000000000000000000000000000000000000000000000000000000815260040161151f90612d27565b60405180910390fd5b600061153383610841565b90508073ffffffffffffffffffffffffffffffffffffffff168473ffffffffffffffffffffffffffffffffffffffff1614806115a257508373ffffffffffffffffffffffffffffffffffffffff1661158a84610506565b73ffffffffffffffffffffffffffffffffffffffff16145b806115b357506115b2818561121a565b5b91505092915050565b8273ffffffffffffffffffffffffffffffffffffffff166115dc82610841565b73ffffffffffffffffffffffffffffffffffffffff1614611632576040517f08c379a000000000000000000000000000000000000000000000000000000000815260040161162990612e27565b60405180910390fd5b600073ffffffffffffffffffffffffffffffffffffffff168273ffffffffffffffffffffffffffffffffffffffff1614156116a2576040517f08c379a000000000000000000000000000000000000000000000000000000000815260040161169990612ce7565b60405180910390fd5b6116ad838383611e2f565b6116b8600082611425565b6001600360008573ffffffffffffffffffffffffffffffffffffffff1673ffffffffffffffffffffffffffffffffffffffff16815260200190815260200160002060008282546117089190613051565b925050819055506001600360008473ffffffffffffffffffffffffffffffffffffffff1673ffffffffffffffffffffffffffffffffffffffff168152602001908152602001600020600082825461175f9190612f70565b92505081905550816002600083815260200190815260200160002060006101000a81548173ffffffffffffffffffffffffffffffffffffffff021916908373ffffffffffffffffffffffffffffffffffffffff160217905550808273ffffffffffffffffffffffffffffffffffffffff168473ffffffffffffffffffffffffffffffffffffffff167fddf252ad1be2c89b69c2b068fc378daa952ba7f163c4a11628f55a4df523b3ef60405160405180910390a4505050565b60606000821415611860576040518060400160405280600181526020017f300000000000000000000000000000000000000000000000000000000000000081525090506119c0565b600082905060005b6000821461189257808061187b9061319e565b915050600a8261188b9190612fc6565b9150611868565b60008167ffffffffffffffff8111156118d4577f4e487b7100000000000000000000000000000000000000000000000000000000600052604160045260246000fd5b6040519080825280601f01601f1916602001820160405280156119065781602001600182028036833780820191505090505b5090505b600085146119b95760018261191f9190613051565b9150600a8561192e91906131e7565b603061193a9190612f70565b60f81b818381518110611976577f4e487b7100000000000000000000000000000000000000000000000000000000600052603260045260246000fd5b60200101907effffffffffffffffffffffffffffffffffffffffffffffffffffffffffffff1916908160001a905350600a856119b29190612fc6565b945061190a565b8093505050505b919050565b6000816040516020016119d89190612a34565b6040516020818303038152906040528051906020012060001c9050919050565b611a038484846115bc565b611a0f84848484611e34565b611a4e576040517f08c379a0000000000000000000000000000000000000000000000000000000008152600401611a4590612ca7565b60405180910390fd5b50505050565b606060405180602001604052806000815250905090565b6060611a76826113b1565b611ab5576040517f08c379a0000000000000000000000000000000000000000000000000000000008152600401611aac90612e47565b60405180910390fd5b6000611abf611a54565b90506000815111611adf5760405180602001604052806000815250611b0a565b80611ae984611818565b604051602001611afa929190612a4b565b6040516020818303038152906040525b915050919050565b600081600001549050919050565b6060600082511415611b4357604051806020016040528060008152509050611cba565b600060405180606001604052806040815260200161399f6040913990506000600360028551611b729190612f70565b611b7c9190612fc6565b6004611b889190612ff7565b90506000602082611b999190612f70565b67ffffffffffffffff811115611bd8577f4e487b7100000000000000000000000000000000000000000000000000000000600052604160045260246000fd5b6040519080825280601f01601f191660200182016040528015611c0a5781602001600182028036833780820191505090505b509050818152600183018586518101602084015b81831015611c79576003830192508251603f8160121c168501518253600182019150603f81600c1c168501518253600182019150603f8160061c168501518253600182019150603f8116850151825360018201915050611c1e565b600389510660018114611c935760028114611ca357611cae565b613d3d60f01b6002830352611cae565b603d60f81b60018303525b50505050508093505050505b919050565b611cd9828260405180602001604052806000815250611fcb565b5050565b611ce6826113b1565b611d25576040517f08c379a0000000000000000000000000000000000000000000000000000000008152600401611d1c90612da7565b60405180910390fd5b80600660008481526020019081526020016000209080519060200190611d4c929190612207565b505050565b6001816000016000828254019250508190555050565b611e01838383604051602401611d7f93929190612c69565b6040516020818303038152906040527fe3849f79000000000000000000000000000000000000000000000000000000007bffffffffffffffffffffffffffffffffffffffffffffffffffffffff19166020820180517bffffffffffffffffffffffffffffffffffffffffffffffffffffffff8381831617835250505050611e06565b505050565b60008151905060006a636f6e736f6c652e6c6f679050602083016000808483855afa5050505050565b505050565b6000611e558473ffffffffffffffffffffffffffffffffffffffff16612026565b15611fbe578373ffffffffffffffffffffffffffffffffffffffff1663150b7a02611e7e61141d565b8786866040518563ffffffff1660e01b8152600401611ea09493929190612bb7565b602060405180830381600087803b158015611eba57600080fd5b505af1925050508015611eeb57506040513d601f19601f82011682018060405250810190611ee8919061254b565b60015b611f6e573d8060008114611f1b576040519150601f19603f3d011682016040523d82523d6000602084013e611f20565b606091505b50600081511415611f66576040517f08c379a0000000000000000000000000000000000000000000000000000000008152600401611f5d90612ca7565b60405180910390fd5b805181602001fd5b63150b7a0260e01b7bffffffffffffffffffffffffffffffffffffffffffffffffffffffff1916817bffffffffffffffffffffffffffffffffffffffffffffffffffffffff191614915050611fc3565b600190505b949350505050565b611fd58383612039565b611fe26000848484611e34565b612021576040517f08c379a000000000000000000000000000000000000000000000000000000000815260040161201890612ca7565b60405180910390fd5b505050565b600080823b905060008111915050919050565b600073ffffffffffffffffffffffffffffffffffffffff168273ffffffffffffffffffffffffffffffffffffffff1614156120a9576040517f08c379a00000000000000000000000000000000000000000000000000000000081526004016120a090612dc7565b60405180910390fd5b6120b2816113b1565b156120f2576040517f08c379a00000000000000000000000000000000000000000000000000000000081526004016120e990612cc7565b60405180910390fd5b6120fe60008383611e2f565b6001600360008473ffffffffffffffffffffffffffffffffffffffff1673ffffffffffffffffffffffffffffffffffffffff168152602001908152602001600020600082825461214e9190612f70565b92505081905550816002600083815260200190815260200160002060006101000a81548173ffffffffffffffffffffffffffffffffffffffff021916908373ffffffffffffffffffffffffffffffffffffffff160217905550808273ffffffffffffffffffffffffffffffffffffffff16600073ffffffffffffffffffffffffffffffffffffffff167fddf252ad1be2c89b69c2b068fc378daa952ba7f163c4a11628f55a4df523b3ef60405160405180910390a45050565b8280546122139061313b565b90600052602060002090601f016020900481019282612235576000855561227c565b82601f1061224e57805160ff191683800117855561227c565b8280016001018555821561227c579182015b8281111561227b578251825591602001919060010190612260565b5b509050612289919061228d565b5090565b5b808211156122a657600081600090555060010161228e565b5090565b60006122bd6122b884612ee7565b612ec2565b9050828152602081018484840111156122d557600080fd5b6122e08482856130f9565b509392505050565b6000813590506122f78161391d565b92915050565b60008135905061230c81613934565b92915050565b6000813590506123218161394b565b92915050565b6000815190506123368161394b565b92915050565b600082601f83011261234d57600080fd5b813561235d8482602086016122aa565b91505092915050565b60008135905061237581613962565b92915050565b60006020828403121561238d57600080fd5b600061239b848285016122e8565b91505092915050565b600080604083850312156123b757600080fd5b60006123c5858286016122e8565b92505060206123d6858286016122e8565b9150509250929050565b6000806000606084860312156123f557600080fd5b6000612403868287016122e8565b9350506020612414868287016122e8565b925050604061242586828701612366565b9150509250925092565b6000806000806080858703121561244557600080fd5b6000612453878288016122e8565b9450506020612464878288016122e8565b935050604061247587828801612366565b925050606085013567ffffffffffffffff81111561249257600080fd5b61249e8782880161233c565b91505092959194509250565b600080604083850312156124bd57600080fd5b60006124cb858286016122e8565b92505060206124dc858286016122fd565b9150509250929050565b600080604083850312156124f957600080fd5b6000612507858286016122e8565b925050602061251885828601612366565b9150509250929050565b60006020828403121561253457600080fd5b600061254284828501612312565b91505092915050565b60006020828403121561255d57600080fd5b600061256b84828501612327565b91505092915050565b60006020828403121561258657600080fd5b600061259484828501612366565b91505092915050565b6125a681613085565b82525050565b6125b581613097565b82525050565b60006125c682612f2d565b6125d08185612f43565b93506125e0818560208601613108565b6125e9816132d4565b840191505092915050565b60006125ff82612f38565b6126098185612f54565b9350612619818560208601613108565b612622816132d4565b840191505092915050565b600061263882612f38565b6126428185612f65565b9350612652818560208601613108565b80840191505092915050565b6000815461266b8161313b565b6126758186612f65565b9450600182166000811461269057600181146126a1576126d4565b60ff198316865281860193506126d4565b6126aa85612f18565b60005b838110156126cc578154818901526001820191506020810190506126ad565b838801955050505b50505092915050565b60006126ea606183612f65565b91506126f5826132e5565b606182019050919050565b600061270d603283612f54565b915061271882613380565b604082019050919050565b6000612730601c83612f54565b915061273b826133cf565b602082019050919050565b6000612753600a83612f65565b915061275e826133f8565b600a82019050919050565b6000612776602483612f54565b915061278182613421565b604082019050919050565b6000612799601983612f54565b91506127a482613470565b602082019050919050565b60006127bc600b83612f65565b91506127c782613499565b600b82019050919050565b60006127df602c83612f54565b91506127ea826134c2565b604082019050919050565b6000612802603883612f54565b915061280d82613511565b604082019050919050565b6000612825602a83612f54565b915061283082613560565b604082019050919050565b6000612848602983612f54565b9150612853826135af565b604082019050919050565b600061286b602e83612f54565b9150612876826135fe565b604082019050919050565b600061288e600283612f65565b91506128998261364d565b600282019050919050565b60006128b1602083612f54565b91506128bc82613676565b602082019050919050565b60006128d4603183612f54565b91506128df8261369f565b604082019050919050565b60006128f7602c83612f54565b9150612902826136ee565b604082019050919050565b600061291a602983612f54565b91506129258261373d565b604082019050919050565b600061293d602f83612f54565b91506129488261378c565b604082019050919050565b6000612960600a83612f65565b915061296b826137db565b600a82019050919050565b6000612983602183612f54565b915061298e82613804565b604082019050919050565b60006129a6600a83612f65565b91506129b182613853565b600a82019050919050565b60006129c9601d83612f65565b91506129d48261387c565b601d82019050919050565b60006129ec601183612f65565b91506129f7826138a5565b601182019050919050565b6000612a0f603183612f54565b9150612a1a826138ce565b604082019050919050565b612a2e816130ef565b82525050565b6000612a40828461262d565b915081905092915050565b6000612a57828561262d565b9150612a63828461262d565b91508190509392505050565b6000612a7b828661262d565b9150612a87828561262d565b9150612a93828461262d565b9150819050949350505050565b6000612aac828561265e565b9150612ab8828461262d565b9150612ac3826129df565b91508190509392505050565b6000612ada82612746565b9150612ae6828461262d565b915081905092915050565b6000612afc826127af565b9150612b08828461262d565b915081905092915050565b6000612b1e82612953565b9150612b2a828561262d565b9150612b35826126dd565b9150612b41828461262d565b9150612b4c82612881565b91508190509392505050565b6000612b6382612999565b9150612b6f828461262d565b915081905092915050565b6000612b85826129bc565b9150612b91828461262d565b915081905092915050565b6000602082019050612bb1600083018461259d565b92915050565b6000608082019050612bcc600083018761259d565b612bd9602083018661259d565b612be66040830185612a25565b8181036060830152612bf881846125bb565b905095945050505050565b6000604082019050612c18600083018561259d565b612c256020830184612a25565b9392505050565b6000602082019050612c4160008301846125ac565b92915050565b60006020820190508181036000830152612c6181846125f4565b905092915050565b60006060820190508181036000830152612c8381866125f4565b9050612c926020830185612a25565b612c9f604083018461259d565b949350505050565b60006020820190508181036000830152612cc081612700565b9050919050565b60006020820190508181036000830152612ce081612723565b9050919050565b60006020820190508181036000830152612d0081612769565b9050919050565b60006020820190508181036000830152612d208161278c565b9050919050565b60006020820190508181036000830152612d40816127d2565b9050919050565b60006020820190508181036000830152612d60816127f5565b9050919050565b60006020820190508181036000830152612d8081612818565b9050919050565b60006020820190508181036000830152612da08161283b565b9050919050565b60006020820190508181036000830152612dc08161285e565b9050919050565b60006020820190508181036000830152612de0816128a4565b9050919050565b60006020820190508181036000830152612e00816128c7565b9050919050565b60006020820190508181036000830152612e20816128ea565b9050919050565b60006020820190508181036000830152612e408161290d565b9050919050565b60006020820190508181036000830152612e6081612930565b9050919050565b60006020820190508181036000830152612e8081612976565b9050919050565b60006020820190508181036000830152612ea081612a02565b9050919050565b6000602082019050612ebc6000830184612a25565b92915050565b6000612ecc612edd565b9050612ed8828261316d565b919050565b6000604051905090565b600067ffffffffffffffff821115612f0257612f016132a5565b5b612f0b826132d4565b9050602081019050919050565b60008190508160005260206000209050919050565b600081519050919050565b600081519050919050565b600082825260208201905092915050565b600082825260208201905092915050565b600081905092915050565b6000612f7b826130ef565b9150612f86836130ef565b9250827fffffffffffffffffffffffffffffffffffffffffffffffffffffffffffffffff03821115612fbb57612fba613218565b5b828201905092915050565b6000612fd1826130ef565b9150612fdc836130ef565b925082612fec57612feb613247565b5b828204905092915050565b6000613002826130ef565b915061300d836130ef565b9250817fffffffffffffffffffffffffffffffffffffffffffffffffffffffffffffffff048311821515161561304657613045613218565b5b828202905092915050565b600061305c826130ef565b9150613067836130ef565b92508282101561307a57613079613218565b5b828203905092915050565b6000613090826130cf565b9050919050565b60008115159050919050565b60007fffffffff0000000000000000000000000000000000000000000000000000000082169050919050565b600073ffffffffffffffffffffffffffffffffffffffff82169050919050565b6000819050919050565b82818337600083830152505050565b60005b8381101561312657808201518184015260208101905061310b565b83811115613135576000848401525b50505050565b6000600282049050600182168061315357607f821691505b6020821081141561316757613166613276565b5b50919050565b613176826132d4565b810181811067ffffffffffffffff82111715613195576131946132a5565b5b80604052505050565b60006131a9826130ef565b91507fffffffffffffffffffffffffffffffffffffffffffffffffffffffffffffffff8214156131dc576131db613218565b5b600182019050919050565b60006131f2826130ef565b91506131fd836130ef565b92508261320d5761320c613247565b5b828206905092915050565b7f4e487b7100000000000000000000000000000000000000000000000000000000600052601160045260246000fd5b7f4e487b7100000000000000000000000000000000000000000000000000000000600052601260045260246000fd5b7f4e487b7100000000000000000000000000000000000000000000000000000000600052602260045260246000fd5b7f4e487b7100000000000000000000000000000000000000000000000000000000600052604160045260246000fd5b6000601f19601f8301169050919050565b7f222c20226465736372697074696f6e223a20224120686967686c79206163636c60008201527f61696d656420636f6c6c656374696f6e206f66205349474e532e222c2022696d60208201527f616765223a2022646174613a696d6167652f7376672b786d6c3b62617365363460408201527f2c00000000000000000000000000000000000000000000000000000000000000606082015250565b7f4552433732313a207472616e7366657220746f206e6f6e20455243373231526560008201527f63656976657220696d706c656d656e7465720000000000000000000000000000602082015250565b7f4552433732313a20746f6b656e20616c7265616479206d696e74656400000000600082015250565b7f54484952445f574f524400000000000000000000000000000000000000000000600082015250565b7f4552433732313a207472616e7366657220746f20746865207a65726f2061646460008201527f7265737300000000000000000000000000000000000000000000000000000000602082015250565b7f4552433732313a20617070726f766520746f2063616c6c657200000000000000600082015250565b7f5345434f4e445f574f5244000000000000000000000000000000000000000000600082015250565b7f4552433732313a206f70657261746f7220717565727920666f72206e6f6e657860008201527f697374656e7420746f6b656e0000000000000000000000000000000000000000602082015250565b7f4552433732313a20617070726f76652063616c6c6572206973206e6f74206f7760008201527f6e6572206e6f7220617070726f76656420666f7220616c6c0000000000000000602082015250565b7f4552433732313a2062616c616e636520717565727920666f7220746865207a6560008201527f726f206164647265737300000000000000000000000000000000000000000000602082015250565b7f4552433732313a206f776e657220717565727920666f72206e6f6e657869737460008201527f656e7420746f6b656e0000000000000000000000000000000000000000000000602082015250565b7f45524337323155524953746f726167653a2055524920736574206f66206e6f6e60008201527f6578697374656e7420746f6b656e000000000000000000000000000000000000602082015250565b7f227d000000000000000000000000000000000000000000000000000000000000600082015250565b7f4552433732313a206d696e7420746f20746865207a65726f2061646472657373600082015250565b7f45524337323155524953746f726167653a2055524920717565727920666f722060008201527f6e6f6e6578697374656e7420746f6b656e000000000000000000000000000000602082015250565b7f4552433732313a20617070726f76656420717565727920666f72206e6f6e657860008201527f697374656e7420746f6b656e0000000000000000000000000000000000000000602082015250565b7f4552433732313a207472616e73666572206f6620746f6b656e2074686174206960008201527f73206e6f74206f776e0000000000000000000000000000000000000000000000602082015250565b7f4552433732314d657461646174613a2055524920717565727920666f72206e6f60008201527f6e6578697374656e7420746f6b656e0000000000000000000000000000000000602082015250565b7f7b226e616d65223a202200000000000000000000000000000000000000000000600082015250565b7f4552433732313a20617070726f76616c20746f2063757272656e74206f776e6560008201527f7200000000000000000000000000000000000000000000000000000000000000602082015250565b7f46495253545f574f524400000000000000000000000000000000000000000000600082015250565b7f646174613a6170706c69636174696f6e2f6a736f6e3b6261736536342c000000600082015250565b7f3c2f746578743e3c2f673e3c2f7376673e000000000000000000000000000000600082015250565b7f4552433732313a207472616e736665722063616c6c6572206973206e6f74206f60008201527f776e6572206e6f7220617070726f766564000000000000000000000000000000602082015250565b61392681613085565b811461393157600080fd5b50565b61393d81613097565b811461394857600080fd5b50565b613954816130a3565b811461395f57600080fd5b50565b61396b816130ef565b811461397657600080fd5b5056fe416e204e465420772f20494420257320686173206265656e206d696e74656420746f2025734142434445464748494a4b4c4d4e4f505152535455565758595a6162636465666768696a6b6c6d6e6f707172737475767778797a303132333435363738392b2fa264697066735822122071cea9a2a93b9e722fe87ba5856795f60dd9273521ba4faef0ee56824e1ac83e64736f6c634300080400333c73766720786d6c6e733d27687474703a2f2f7777772e77332e6f72672f323030302f73766727207072657365727665417370656374526174696f3d27784d696e594d696e206d656574272076696577426f783d273020302033353020333530273e3c646566733e3c66696c7465722069643d274d7946696c746572272066696c746572556e6974733d277573657253706163654f6e5573652720783d27302720793d2730272077696474683d2732303027206865696768743d27313230273e3c6665476175737369616e426c757220696e3d27536f75726365416c7068612720737464446576696174696f6e3d27342720726573756c743d27626c757227202f3e3c66654f666673657420696e3d27626c7572272064783d2734272064793d27342720726573756c743d276f6666736574426c757227202f3e3c666553706563756c61724c69676874696e6720696e3d27626c75722720737572666163655363616c653d2735272073706563756c6172436f6e7374616e743d272e3735272073706563756c61724578706f6e656e743d27323027206c69676874696e672d636f6c6f723d27236262626262622720726573756c743d27737065634f7574273e3c6665506f696e744c6967687420783d272d353030302720793d272d313030303027207a3d27323030303027202f3e3c2f666553706563756c61724c69676874696e673e3c6665436f6d706f7369746520696e3d27737065634f75742720696e323d27536f75726365416c70686127206f70657261746f723d27696e2720726573756c743d27737065634f757427202f3e3c6665436f6d706f7369746520696e3d27536f75726365477261706869632720696e323d27737065634f757427206f70657261746f723d2761726974686d6574696327206b313d273027206b323d273127206b333d273127206b343d27302720726573756c743d276c69745061696e7427202f3e3c66654d657267653e3c66654d657267654e6f646520696e3d276f6666736574426c757227202f3e3c66654d657267654e6f646520696e3d276c69745061696e7427202f3e3c2f66654d657267653e3c2f66696c7465723e3c2f646566733e3c7265637420783d27312720793d2731272077696474683d2731393827206865696768743d27313138272066696c6c3d272363636363636327202f3e3c672066696c7465723d2775726c28234d7946696c74657229273e3c706174682066696c6c3d276e6f6e6527207374726f6b653d272344393030303027207374726f6b652d77696474683d2731302720643d274d35302c39302043302c393020302c33302035302c3330204c3135302c333020433230302c3330203230302c3930203135302c3930207a27202f3e3c746578742066696c6c3d272346464646464627207374726f6b653d27626c61636b2720666f6e742d73697a653d2731352720666f6e742d66616d696c793d2756657264616e612720746578742d616e63686f723d276d6964646c652720783d2739352720793d273635273e54686973206973206d79204e465420636f6e74726163742e204275696c7420627920544c43",
  "linkReferences": {},
  "deployedLinkReferences": {}
}